{
  "transactions": [
    {
      "hash": "0x4054e7106bc7081158a9a27bf775af9b78db34d916c74ef912ad1fdf59f198b9",
      "transactionType": "CALL",
      "contractName": null,
      "contractAddress": "0x13a3f83145ce29cb768c03438a8eeda8a70790a2",
      "function": "mintNft()",
      "arguments": [],
      "transaction": {
        "from": "0x4c9630397e08c8b54375ad8608025db7c7026840",
        "to": "0x13a3f83145ce29cb768c03438a8eeda8a70790a2",
        "gas": "0x14971",
        "value": "0x0",
        "input": "0xc2229fea",
        "nonce": "0x9b",
        "chainId": "0xaa36a7"
      },
      "additionalContracts": [],
      "isFixedGasLimit": false
    },
    {
      "hash": "0xebc49ede4e46b931469d4798373ebab063212756a6d6854b04c7ef2fa84b109e",
      "transactionType": "CALL",
      "contractName": null,
      "contractAddress": "0x13a3f83145ce29cb768c03438a8eeda8a70790a2",
      "function": "approve(address,uint256)",
      "arguments": [
        "0x4f5ce484202e50E7c98EDD69706400925bEfE233",
        "1"
      ],
      "transaction": {
        "from": "0x4c9630397e08c8b54375ad8608025db7c7026840",
        "to": "0x13a3f83145ce29cb768c03438a8eeda8a70790a2",
        "gas": "0x11611",
        "value": "0x0",
        "input": "0x095ea7b30000000000000000000000004f5ce484202e50e7c98edd69706400925befe2330000000000000000000000000000000000000000000000000000000000000001",
        "nonce": "0x9c",
        "chainId": "0xaa36a7"
      },
      "additionalContracts": [],
      "isFixedGasLimit": false
    },
    {
      "hash": "0x6ce5e0f083f1ca7204c8f5a64dae40f72760dcf867bb7358a739c0a972d2cdd8",
      "transactionType": "CALL",
      "contractName": "TicketPool",
      "contractAddress": "0x4f5ce484202e50e7c98edd69706400925befe233",
      "function": "listitem(address,uint256,uint256)",
      "arguments": [
        "0x13a3f83145cE29cB768C03438A8EEda8a70790A2",
        "1",
        "100000000000000000"
      ],
      "transaction": {
        "from": "0x4c9630397e08c8b54375ad8608025db7c7026840",
        "to": "0x4f5ce484202e50e7c98edd69706400925befe233",
        "gas": "0x1a6a5",
        "value": "0x0",
        "input": "0x240ba0e200000000000000000000000013a3f83145ce29cb768c03438a8eeda8a70790a20000000000000000000000000000000000000000000000000000000000000001000000000000000000000000000000000000000000000000016345785d8a0000",
        "nonce": "0x9d",
        "chainId": "0xaa36a7"
      },
      "additionalContracts": [],
      "isFixedGasLimit": false
    }
  ],
  "receipts": [
    {
      "status": "0x1",
      "cumulativeGasUsed": "0x12c0049",
      "logs": [
        {
          "address": "0x13a3f83145ce29cb768c03438a8eeda8a70790a2",
          "topics": [
            "0xddf252ad1be2c89b69c2b068fc378daa952ba7f163c4a11628f55a4df523b3ef",
            "0x0000000000000000000000000000000000000000000000000000000000000000",
            "0x0000000000000000000000004c9630397e08c8b54375ad8608025db7c7026840",
            "0x0000000000000000000000000000000000000000000000000000000000000001"
          ],
          "data": "0x",
          "blockHash": "0x7c52e26b69af6d92f863ecb948030ab6d5c497905c4c61e3ded048a0fa0b10d8",
          "blockNumber": "0x715299",
          "transactionHash": "0x4054e7106bc7081158a9a27bf775af9b78db34d916c74ef912ad1fdf59f198b9",
          "transactionIndex": "0x7c",
          "logIndex": "0xe0",
          "removed": false
        },
        {
          "address": "0x13a3f83145ce29cb768c03438a8eeda8a70790a2",
          "topics": [
            "0xef1da42f89c42f48befa143007e6f5efd84a2d1cc3dc97c5edd2d3373220f66d",
            "0x0000000000000000000000000000000000000000000000000000000000000001"
          ],
          "data": "0x",
          "blockHash": "0x7c52e26b69af6d92f863ecb948030ab6d5c497905c4c61e3ded048a0fa0b10d8",
          "blockNumber": "0x715299",
          "transactionHash": "0x4054e7106bc7081158a9a27bf775af9b78db34d916c74ef912ad1fdf59f198b9",
          "transactionIndex": "0x7c",
          "logIndex": "0xe1",
          "removed": false
        }
      ],
      "logsBloom": "0x00004000000000000000000000100000000000000000000000000000000000000000000000000000001000000000000000000000004000000000000000040000000000000000000000000008000000000002000000040000000000000000000000000000020000000000000000000800000000000000000000000010000000000000000000000000000000000000000000000000000000000000000000008000000000000000000000000000000000000000000000000000000000000000000000000002000000000000000000000000000000000000000000000000000260010000000000000000000000000010000000000000000000000000000000000000",
      "type": "0x2",
      "transactionHash": "0x4054e7106bc7081158a9a27bf775af9b78db34d916c74ef912ad1fdf59f198b9",
      "transactionIndex": "0x7c",
      "blockHash": "0x7c52e26b69af6d92f863ecb948030ab6d5c497905c4c61e3ded048a0fa0b10d8",
      "blockNumber": "0x715299",
      "gasUsed": "0xe143",
      "effectiveGasPrice": "0x81e9ef86f",
      "from": "0x4c9630397e08c8b54375ad8608025db7c7026840",
      "to": "0x13a3f83145ce29cb768c03438a8eeda8a70790a2",
      "contractAddress": null
    },
    {
      "status": "0x1",
      "cumulativeGasUsed": "0x12cbe6b",
      "logs": [
        {
          "address": "0x13a3f83145ce29cb768c03438a8eeda8a70790a2",
          "topics": [
            "0x8c5be1e5ebec7d5bd14f71427d1e84f3dd0314c0f7b2291e5b200ac8c7c3b925",
            "0x0000000000000000000000004c9630397e08c8b54375ad8608025db7c7026840",
            "0x0000000000000000000000004f5ce484202e50e7c98edd69706400925befe233",
            "0x0000000000000000000000000000000000000000000000000000000000000001"
          ],
          "data": "0x",
          "blockHash": "0x7c52e26b69af6d92f863ecb948030ab6d5c497905c4c61e3ded048a0fa0b10d8",
          "blockNumber": "0x715299",
          "transactionHash": "0xebc49ede4e46b931469d4798373ebab063212756a6d6854b04c7ef2fa84b109e",
          "transactionIndex": "0x7d",
          "logIndex": "0xe2",
          "removed": false
        }
      ],
      "logsBloom": "0x00004000000000000000000000000000000000000000000000000000000000000000000000000000001000000000000000000000000000000000000000240000000000000000000000000000000000000002000000040000000000000000000000000000000000000000000000000000000000000000000000000000000000000000000000000000000000000000000000000000000000000000000000000000020000000000000000000000000000000000000000000000000000000000000000000000000000000000000000000000800000000000002000000000000240010010000000000000000000080010000000000000000000000000000000000000",
      "type": "0x2",
      "transactionHash": "0xebc49ede4e46b931469d4798373ebab063212756a6d6854b04c7ef2fa84b109e",
      "transactionIndex": "0x7d",
      "blockHash": "0x7c52e26b69af6d92f863ecb948030ab6d5c497905c4c61e3ded048a0fa0b10d8",
      "blockNumber": "0x715299",
      "gasUsed": "0xbe22",
      "effectiveGasPrice": "0x81e9ef86f",
      "from": "0x4c9630397e08c8b54375ad8608025db7c7026840",
      "to": "0x13a3f83145ce29cb768c03438a8eeda8a70790a2",
      "contractAddress": null
    },
    {
      "status": "0x1",
      "cumulativeGasUsed": "0x12df069",
      "logs": [
        {
          "address": "0x4f5ce484202e50e7c98edd69706400925befe233",
          "topics": [
            "0xd547e933094f12a9159076970143ebe73234e64480317844b0dcb36117116de4",
            "0x0000000000000000000000004c9630397e08c8b54375ad8608025db7c7026840",
            "0x00000000000000000000000013a3f83145ce29cb768c03438a8eeda8a70790a2",
            "0x0000000000000000000000000000000000000000000000000000000000000001"
          ],
          "data": "0x000000000000000000000000000000000000000000000000016345785d8a0000",
          "blockHash": "0x7c52e26b69af6d92f863ecb948030ab6d5c497905c4c61e3ded048a0fa0b10d8",
          "blockNumber": "0x715299",
          "transactionHash": "0x6ce5e0f083f1ca7204c8f5a64dae40f72760dcf867bb7358a739c0a972d2cdd8",
          "transactionIndex": "0x7e",
          "logIndex": "0xe3",
          "removed": false
        }
      ],
      "logsBloom": "0x00004800000000000000000000000000000000000000000000000000000000000000000000000000000000000010000000000000000000000000000000044004000000000000000000000000000000000002000000040000000000000000000000000001000000000000000000000000000000000000000000000000000000000000000000000000008000000000000000000000000000000400000000000000000000020000000000000000000000000000000000000000000000000000000000000000000000000000000000000000000000000000000000000000000040010000000000000000000000000000000000000000000000000000000040000000",
      "type": "0x2",
      "transactionHash": "0x6ce5e0f083f1ca7204c8f5a64dae40f72760dcf867bb7358a739c0a972d2cdd8",
      "transactionIndex": "0x7e",
      "blockHash": "0x7c52e26b69af6d92f863ecb948030ab6d5c497905c4c61e3ded048a0fa0b10d8",
      "blockNumber": "0x715299",
      "gasUsed": "0x131fe",
      "effectiveGasPrice": "0x81e9ef86f",
      "from": "0x4c9630397e08c8b54375ad8608025db7c7026840",
      "to": "0x4f5ce484202e50e7c98edd69706400925befe233",
      "contractAddress": null
    }
  ],
  "libraries": [],
  "pending": [],
  "returns": {},
  "timestamp": 1736084822,
  "chain": 11155111,
  "commit": "087226c"
}