{
  "transactions": [
    {
      "hash": "0x91b03a3f00338896039a6d7dc28840ad02d0ada13ff6e425b4b70ae77fc4efe8",
      "transactionType": "CALL",
      "contractName": "MockNft",
      "contractAddress": "0x13a3f83145ce29cb768c03438a8eeda8a70790a2",
      "function": "mintNft()",
      "arguments": [],
      "transaction": {
        "from": "0x4c9630397e08c8b54375ad8608025db7c7026840",
        "to": "0x13a3f83145ce29cb768c03438a8eeda8a70790a2",
        "gas": "0x14971",
        "value": "0x0",
        "input": "0xc2229fea",
        "nonce": "0xa4",
        "chainId": "0xaa36a7"
      },
      "additionalContracts": [],
      "isFixedGasLimit": false
    },
    {
      "hash": "0x6032411b98f0f4038e724d1b1845e1fc78ce4bd7cee7faf95e5d0153d81f5bfe",
      "transactionType": "CALL",
      "contractName": "MockNft",
      "contractAddress": "0x13a3f83145ce29cb768c03438a8eeda8a70790a2",
      "function": "approve(address,uint256)",
      "arguments": [
        "0x4f5ce484202e50E7c98EDD69706400925bEfE233",
        "4"
      ],
      "transaction": {
        "from": "0x4c9630397e08c8b54375ad8608025db7c7026840",
        "to": "0x13a3f83145ce29cb768c03438a8eeda8a70790a2",
        "gas": "0x11611",
        "value": "0x0",
        "input": "0x095ea7b30000000000000000000000004f5ce484202e50e7c98edd69706400925befe2330000000000000000000000000000000000000000000000000000000000000004",
        "nonce": "0xa5",
        "chainId": "0xaa36a7"
      },
      "additionalContracts": [],
      "isFixedGasLimit": false
    },
    {
      "hash": "0xaed1afd1d72b988b68605d90847d4247f822e4ab400a6bc0a41871aeb41baf50",
      "transactionType": "CALL",
      "contractName": "TicketPool",
      "contractAddress": "0x4f5ce484202e50e7c98edd69706400925befe233",
      "function": "listitem(address,uint256,uint256)",
      "arguments": [
        "0x13a3f83145cE29cB768C03438A8EEda8a70790A2",
        "4",
        "100000000000000000"
      ],
      "transaction": {
        "from": "0x4c9630397e08c8b54375ad8608025db7c7026840",
        "to": "0x4f5ce484202e50e7c98edd69706400925befe233",
        "gas": "0x1a6a5",
        "value": "0x0",
        "input": "0x240ba0e200000000000000000000000013a3f83145ce29cb768c03438a8eeda8a70790a20000000000000000000000000000000000000000000000000000000000000004000000000000000000000000000000000000000000000000016345785d8a0000",
        "nonce": "0xa6",
        "chainId": "0xaa36a7"
      },
      "additionalContracts": [],
      "isFixedGasLimit": false
    }
  ],
  "receipts": [
    {
      "status": "0x1",
      "cumulativeGasUsed": "0x7b3050",
      "logs": [
        {
          "address": "0x13a3f83145ce29cb768c03438a8eeda8a70790a2",
          "topics": [
            "0xddf252ad1be2c89b69c2b068fc378daa952ba7f163c4a11628f55a4df523b3ef",
            "0x0000000000000000000000000000000000000000000000000000000000000000",
            "0x0000000000000000000000004c9630397e08c8b54375ad8608025db7c7026840",
            "0x0000000000000000000000000000000000000000000000000000000000000004"
          ],
          "data": "0x",
          "blockHash": "0xcd6d595053c100ef4270cdb8ff93a6ca21be75d12eb529d187487d9424dc9d46",
          "blockNumber": "0x71838f",
          "transactionHash": "0x91b03a3f00338896039a6d7dc28840ad02d0ada13ff6e425b4b70ae77fc4efe8",
          "transactionIndex": "0x44",
          "logIndex": "0x7a",
          "removed": false
        },
        {
          "address": "0x13a3f83145ce29cb768c03438a8eeda8a70790a2",
          "topics": [
            "0xef1da42f89c42f48befa143007e6f5efd84a2d1cc3dc97c5edd2d3373220f66d",
            "0x0000000000000000000000000000000000000000000000000000000000000004"
          ],
          "data": "0x",
          "blockHash": "0xcd6d595053c100ef4270cdb8ff93a6ca21be75d12eb529d187487d9424dc9d46",
          "blockNumber": "0x71838f",
          "transactionHash": "0x91b03a3f00338896039a6d7dc28840ad02d0ada13ff6e425b4b70ae77fc4efe8",
          "transactionIndex": "0x44",
          "logIndex": "0x7b",
          "removed": false
        }
      ],
      "logsBloom": "0x00004000000000000000000000100000000000000000000000000000000000000000000000000000001000000000000000000000004000000000000000000000000000000000000000000008000000000002000000000000000000000000000008000000020000000000000000000800000000000000000000000010000000000000000000000000000000000000000000000000000000000000000000008000000000000000000000000000000000000000000000000000002000000000000000000002000000000000000000000000000000008000000000000000000220010000000000000000000000000010000000000000000000000000000000000000",
      "type": "0x2",
      "transactionHash": "0x91b03a3f00338896039a6d7dc28840ad02d0ada13ff6e425b4b70ae77fc4efe8",
      "transactionIndex": "0x44",
      "blockHash": "0xcd6d595053c100ef4270cdb8ff93a6ca21be75d12eb529d187487d9424dc9d46",
      "blockNumber": "0x71838f",
      "gasUsed": "0xe143",
      "effectiveGasPrice": "0x9e9620550",
      "from": "0x4c9630397e08c8b54375ad8608025db7c7026840",
      "to": "0x13a3f83145ce29cb768c03438a8eeda8a70790a2",
      "contractAddress": null
    },
    {
      "status": "0x1",
      "cumulativeGasUsed": "0x7bee72",
      "logs": [
        {
          "address": "0x13a3f83145ce29cb768c03438a8eeda8a70790a2",
          "topics": [
            "0x8c5be1e5ebec7d5bd14f71427d1e84f3dd0314c0f7b2291e5b200ac8c7c3b925",
            "0x0000000000000000000000004c9630397e08c8b54375ad8608025db7c7026840",
            "0x0000000000000000000000004f5ce484202e50e7c98edd69706400925befe233",
            "0x0000000000000000000000000000000000000000000000000000000000000004"
          ],
          "data": "0x",
          "blockHash": "0xcd6d595053c100ef4270cdb8ff93a6ca21be75d12eb529d187487d9424dc9d46",
          "blockNumber": "0x71838f",
          "transactionHash": "0x6032411b98f0f4038e724d1b1845e1fc78ce4bd7cee7faf95e5d0153d81f5bfe",
          "transactionIndex": "0x45",
          "logIndex": "0x7c",
          "removed": false
        }
      ],
      "logsBloom": "0x00004000000000000000000000000000000000000000000000000000000000000000000000000000001000000000000000000000000000000000000000200000000000000000000000000000000000000002000000000000000000000000000008000000000000000000000000000000000000000000000000000000000000000000000000000000000000000000000000000000000000000000000000000000020000000000000000000000000000000000000000000000002000000000000000000000000000000000000000000000800000008000002000000000000200010010000000000000000000080010000000000000000000000000000000000000",
      "type": "0x2",
      "transactionHash": "0x6032411b98f0f4038e724d1b1845e1fc78ce4bd7cee7faf95e5d0153d81f5bfe",
      "transactionIndex": "0x45",
      "blockHash": "0xcd6d595053c100ef4270cdb8ff93a6ca21be75d12eb529d187487d9424dc9d46",
      "blockNumber": "0x71838f",
      "gasUsed": "0xbe22",
      "effectiveGasPrice": "0x9e9620550",
      "from": "0x4c9630397e08c8b54375ad8608025db7c7026840",
      "to": "0x13a3f83145ce29cb768c03438a8eeda8a70790a2",
      "contractAddress": null
    },
    {
      "status": "0x1",
      "cumulativeGasUsed": "0x7d2070",
      "logs": [
        {
          "address": "0x4f5ce484202e50e7c98edd69706400925befe233",
          "topics": [
            "0xd547e933094f12a9159076970143ebe73234e64480317844b0dcb36117116de4",
            "0x0000000000000000000000004c9630397e08c8b54375ad8608025db7c7026840",
            "0x00000000000000000000000013a3f83145ce29cb768c03438a8eeda8a70790a2",
            "0x0000000000000000000000000000000000000000000000000000000000000004"
          ],
          "data": "0x000000000000000000000000000000000000000000000000016345785d8a0000",
          "blockHash": "0xcd6d595053c100ef4270cdb8ff93a6ca21be75d12eb529d187487d9424dc9d46",
          "blockNumber": "0x71838f",
          "transactionHash": "0xaed1afd1d72b988b68605d90847d4247f822e4ab400a6bc0a41871aeb41baf50",
          "transactionIndex": "0x46",
          "logIndex": "0x7d",
          "removed": false
        }
      ],
      "logsBloom": "0x00004800000000000000000000000000000000000000000000000000000000000000000000000000000000000010000000000000000000000000000000004004000000000000000000000000000000000002000000000000000000000000000008000001000000000000000000000000000000000000000000000000000000000000000000000000008000000000000000000000000000000400000000000000000000020000000000000000000000000000000000000000002000000000000000000000000000000000000000000000000000008000000000000000000000010000000000000000000000000000000000000000000000000000000040000000",
      "type": "0x2",
      "transactionHash": "0xaed1afd1d72b988b68605d90847d4247f822e4ab400a6bc0a41871aeb41baf50",
      "transactionIndex": "0x46",
      "blockHash": "0xcd6d595053c100ef4270cdb8ff93a6ca21be75d12eb529d187487d9424dc9d46",
      "blockNumber": "0x71838f",
      "gasUsed": "0x131fe",
      "effectiveGasPrice": "0x9e9620550",
      "from": "0x4c9630397e08c8b54375ad8608025db7c7026840",
      "to": "0x4f5ce484202e50e7c98edd69706400925befe233",
      "contractAddress": null
    }
  ],
  "libraries": [],
  "pending": [],
  "returns": {},
  "timestamp": 1736244530,
  "chain": 11155111,
  "commit": "087226c"
}