{
  "transactions": [
    {
      "hash": "0xea59fb9e948c7949249fed78acc770ae1e62474b19685ca7eb9e759a1afe29eb",
      "transactionType": "CALL",
      "contractName": "MockNft",
      "contractAddress": "0x13a3f83145ce29cb768c03438a8eeda8a70790a2",
      "function": "mintNft()",
      "arguments": [],
      "transaction": {
        "from": "0x4c9630397e08c8b54375ad8608025db7c7026840",
        "to": "0x13a3f83145ce29cb768c03438a8eeda8a70790a2",
        "gas": "0x14971",
        "value": "0x0",
        "input": "0xc2229fea",
        "nonce": "0xa1",
        "chainId": "0xaa36a7"
      },
      "additionalContracts": [],
      "isFixedGasLimit": false
    },
    {
      "hash": "0x4e579a45cc282b45d8f2fb21f8eb434f91d67ac99a807218c3ff56aae6cb7d7e",
      "transactionType": "CALL",
      "contractName": "MockNft",
      "contractAddress": "0x13a3f83145ce29cb768c03438a8eeda8a70790a2",
      "function": "approve(address,uint256)",
      "arguments": [
        "0x4f5ce484202e50E7c98EDD69706400925bEfE233",
        "3"
      ],
      "transaction": {
        "from": "0x4c9630397e08c8b54375ad8608025db7c7026840",
        "to": "0x13a3f83145ce29cb768c03438a8eeda8a70790a2",
        "gas": "0x11611",
        "value": "0x0",
        "input": "0x095ea7b30000000000000000000000004f5ce484202e50e7c98edd69706400925befe2330000000000000000000000000000000000000000000000000000000000000003",
        "nonce": "0xa2",
        "chainId": "0xaa36a7"
      },
      "additionalContracts": [],
      "isFixedGasLimit": false
    },
    {
      "hash": "0x1d3d6603b61f700a1305f560cb34f746baea06221f1ea877b8545a96a3f05869",
      "transactionType": "CALL",
      "contractName": "TicketPool",
      "contractAddress": "0x4f5ce484202e50e7c98edd69706400925befe233",
      "function": "listitem(address,uint256,uint256)",
      "arguments": [
        "0x13a3f83145cE29cB768C03438A8EEda8a70790A2",
        "3",
        "100000000000000000"
      ],
      "transaction": {
        "from": "0x4c9630397e08c8b54375ad8608025db7c7026840",
        "to": "0x4f5ce484202e50e7c98edd69706400925befe233",
        "gas": "0x1a6a5",
        "value": "0x0",
        "input": "0x240ba0e200000000000000000000000013a3f83145ce29cb768c03438a8eeda8a70790a20000000000000000000000000000000000000000000000000000000000000003000000000000000000000000000000000000000000000000016345785d8a0000",
        "nonce": "0xa3",
        "chainId": "0xaa36a7"
      },
      "additionalContracts": [],
      "isFixedGasLimit": false
    }
  ],
  "receipts": [
    {
      "status": "0x1",
      "cumulativeGasUsed": "0x9210fd",
      "logs": [
        {
          "address": "0x13a3f83145ce29cb768c03438a8eeda8a70790a2",
          "topics": [
            "0xddf252ad1be2c89b69c2b068fc378daa952ba7f163c4a11628f55a4df523b3ef",
            "0x0000000000000000000000000000000000000000000000000000000000000000",
            "0x0000000000000000000000004c9630397e08c8b54375ad8608025db7c7026840",
            "0x0000000000000000000000000000000000000000000000000000000000000003"
          ],
          "data": "0x",
          "blockHash": "0x98354ce3dbeecb3eb4e6a2fb92db4bfda388f0a8fd92fb20705dcd19861f5f38",
          "blockNumber": "0x71837e",
          "transactionHash": "0xea59fb9e948c7949249fed78acc770ae1e62474b19685ca7eb9e759a1afe29eb",
          "transactionIndex": "0x45",
          "logIndex": "0x61",
          "removed": false
        },
        {
          "address": "0x13a3f83145ce29cb768c03438a8eeda8a70790a2",
          "topics": [
            "0xef1da42f89c42f48befa143007e6f5efd84a2d1cc3dc97c5edd2d3373220f66d",
            "0x0000000000000000000000000000000000000000000000000000000000000003"
          ],
          "data": "0x",
          "blockHash": "0x98354ce3dbeecb3eb4e6a2fb92db4bfda388f0a8fd92fb20705dcd19861f5f38",
          "blockNumber": "0x71837e",
          "transactionHash": "0xea59fb9e948c7949249fed78acc770ae1e62474b19685ca7eb9e759a1afe29eb",
          "transactionIndex": "0x45",
          "logIndex": "0x62",
          "removed": false
        }
      ],
      "logsBloom": "0x00004000000000000000000000100000000000000000000000000000000000000000000000000000001000000000000000000000024000000000000000000000000000000000000000000008000000000002000000000000000000000000000000000000020000000000000000000800000000000000000000000010000000000000000000000000000000000000000000000000000000000000000000008000000000000000000000000000000000000000000000800000000000000000400000000002000000000000000000000000000000000000000000000000000220010000000000000000000000000010000000000000000000000000000000000000",
      "type": "0x2",
      "transactionHash": "0xea59fb9e948c7949249fed78acc770ae1e62474b19685ca7eb9e759a1afe29eb",
      "transactionIndex": "0x45",
      "blockHash": "0x98354ce3dbeecb3eb4e6a2fb92db4bfda388f0a8fd92fb20705dcd19861f5f38",
      "blockNumber": "0x71837e",
      "gasUsed": "0xe143",
      "effectiveGasPrice": "0xba1604712",
      "from": "0x4c9630397e08c8b54375ad8608025db7c7026840",
      "to": "0x13a3f83145ce29cb768c03438a8eeda8a70790a2",
      "contractAddress": null
    },
    {
      "status": "0x1",
      "cumulativeGasUsed": "0x92cf1f",
      "logs": [
        {
          "address": "0x13a3f83145ce29cb768c03438a8eeda8a70790a2",
          "topics": [
            "0x8c5be1e5ebec7d5bd14f71427d1e84f3dd0314c0f7b2291e5b200ac8c7c3b925",
            "0x0000000000000000000000004c9630397e08c8b54375ad8608025db7c7026840",
            "0x0000000000000000000000004f5ce484202e50e7c98edd69706400925befe233",
            "0x0000000000000000000000000000000000000000000000000000000000000003"
          ],
          "data": "0x",
          "blockHash": "0x98354ce3dbeecb3eb4e6a2fb92db4bfda388f0a8fd92fb20705dcd19861f5f38",
          "blockNumber": "0x71837e",
          "transactionHash": "0x4e579a45cc282b45d8f2fb21f8eb434f91d67ac99a807218c3ff56aae6cb7d7e",
          "transactionIndex": "0x46",
          "logIndex": "0x63",
          "removed": false
        }
      ],
      "logsBloom": "0x00004000000000000000000000000000000000000000000000000000000000000000000000000000001000000000000000000000020000000000000000200000000000000000000000000000000000000002000000000000000000000000000000000000000000000000000000000000000000000000000000000000000000000000000000000000000000000000000000000000000000000000000000000000020000000000000000000000000000000000000000800000000000000000400000000000000000000000000000000000800000000000002000000000000200010010000000000000000000080010000000000000000000000000000000000000",
      "type": "0x2",
      "transactionHash": "0x4e579a45cc282b45d8f2fb21f8eb434f91d67ac99a807218c3ff56aae6cb7d7e",
      "transactionIndex": "0x46",
      "blockHash": "0x98354ce3dbeecb3eb4e6a2fb92db4bfda388f0a8fd92fb20705dcd19861f5f38",
      "blockNumber": "0x71837e",
      "gasUsed": "0xbe22",
      "effectiveGasPrice": "0xba1604712",
      "from": "0x4c9630397e08c8b54375ad8608025db7c7026840",
      "to": "0x13a3f83145ce29cb768c03438a8eeda8a70790a2",
      "contractAddress": null
    },
    {
      "status": "0x1",
      "cumulativeGasUsed": "0x94011d",
      "logs": [
        {
          "address": "0x4f5ce484202e50e7c98edd69706400925befe233",
          "topics": [
            "0xd547e933094f12a9159076970143ebe73234e64480317844b0dcb36117116de4",
            "0x0000000000000000000000004c9630397e08c8b54375ad8608025db7c7026840",
            "0x00000000000000000000000013a3f83145ce29cb768c03438a8eeda8a70790a2",
            "0x0000000000000000000000000000000000000000000000000000000000000003"
          ],
          "data": "0x000000000000000000000000000000000000000000000000016345785d8a0000",
          "blockHash": "0x98354ce3dbeecb3eb4e6a2fb92db4bfda388f0a8fd92fb20705dcd19861f5f38",
          "blockNumber": "0x71837e",
          "transactionHash": "0x1d3d6603b61f700a1305f560cb34f746baea06221f1ea877b8545a96a3f05869",
          "transactionIndex": "0x47",
          "logIndex": "0x64",
          "removed": false
        }
      ],
      "logsBloom": "0x00004800000000000000000000000000000000000000000000000000000000000000000000000000000000000010000000000000020000000000000000004004000000000000000000000000000000000002000000000000000000000000000000000001000000000000000000000000000000000000000000000000000000000000000000000000008000000000000000000000000000000400000000000000000000020000000000000000000000000000000000800000000000000000400000000000000000000000000000000000000000000000000000000000000000010000000000000000000000000000000000000000000000000000000040000000",
      "type": "0x2",
      "transactionHash": "0x1d3d6603b61f700a1305f560cb34f746baea06221f1ea877b8545a96a3f05869",
      "transactionIndex": "0x47",
      "blockHash": "0x98354ce3dbeecb3eb4e6a2fb92db4bfda388f0a8fd92fb20705dcd19861f5f38",
      "blockNumber": "0x71837e",
      "gasUsed": "0x131fe",
      "effectiveGasPrice": "0xba1604712",
      "from": "0x4c9630397e08c8b54375ad8608025db7c7026840",
      "to": "0x4f5ce484202e50e7c98edd69706400925befe233",
      "contractAddress": null
    }
  ],
  "libraries": [],
  "pending": [],
  "returns": {},
  "timestamp": 1736244326,
  "chain": 11155111,
  "commit": "087226c"
}