{
  "transactions": [
    {
      "hash": "0xf8569727bf4673dff32a088a6aea7d7855177bc6509a04967ec453a7493d0d7b",
      "transactionType": "CALL",
      "contractName": null,
      "contractAddress": "0x13a3f83145ce29cb768c03438a8eeda8a70790a2",
      "function": "mintNft()",
      "arguments": [],
      "transaction": {
        "from": "0x4c9630397e08c8b54375ad8608025db7c7026840",
        "to": "0x13a3f83145ce29cb768c03438a8eeda8a70790a2",
        "gas": "0x14971",
        "value": "0x0",
        "input": "0xc2229fea",
        "nonce": "0x9e",
        "chainId": "0xaa36a7"
      },
      "additionalContracts": [],
      "isFixedGasLimit": false
    },
    {
      "hash": "0x79e8e6a8092b3403187c9227fcd5d9fc6e94f1c7b3c9ee61962e2231871d4884",
      "transactionType": "CALL",
      "contractName": null,
      "contractAddress": "0x13a3f83145ce29cb768c03438a8eeda8a70790a2",
      "function": "approve(address,uint256)",
      "arguments": [
        "0x4f5ce484202e50E7c98EDD69706400925bEfE233",
        "2"
      ],
      "transaction": {
        "from": "0x4c9630397e08c8b54375ad8608025db7c7026840",
        "to": "0x13a3f83145ce29cb768c03438a8eeda8a70790a2",
        "gas": "0x11611",
        "value": "0x0",
        "input": "0x095ea7b30000000000000000000000004f5ce484202e50e7c98edd69706400925befe2330000000000000000000000000000000000000000000000000000000000000002",
        "nonce": "0x9f",
        "chainId": "0xaa36a7"
      },
      "additionalContracts": [],
      "isFixedGasLimit": false
    },
    {
      "hash": "0x7f575972105b1f8e09caee91aeb5c07b7732f6d4915b57aa2ea925a5711f9429",
      "transactionType": "CALL",
      "contractName": "TicketPool",
      "contractAddress": "0x4f5ce484202e50e7c98edd69706400925befe233",
      "function": "listitem(address,uint256,uint256)",
      "arguments": [
        "0x13a3f83145cE29cB768C03438A8EEda8a70790A2",
        "2",
        "100000000000000000"
      ],
      "transaction": {
        "from": "0x4c9630397e08c8b54375ad8608025db7c7026840",
        "to": "0x4f5ce484202e50e7c98edd69706400925befe233",
        "gas": "0x1a6a5",
        "value": "0x0",
        "input": "0x240ba0e200000000000000000000000013a3f83145ce29cb768c03438a8eeda8a70790a20000000000000000000000000000000000000000000000000000000000000002000000000000000000000000000000000000000000000000016345785d8a0000",
        "nonce": "0xa0",
        "chainId": "0xaa36a7"
      },
      "additionalContracts": [],
      "isFixedGasLimit": false
    }
  ],
  "receipts": [
    {
      "status": "0x1",
      "cumulativeGasUsed": "0xf47aad",
      "logs": [
        {
          "address": "0x13a3f83145ce29cb768c03438a8eeda8a70790a2",
          "topics": [
            "0xddf252ad1be2c89b69c2b068fc378daa952ba7f163c4a11628f55a4df523b3ef",
            "0x0000000000000000000000000000000000000000000000000000000000000000",
            "0x0000000000000000000000004c9630397e08c8b54375ad8608025db7c7026840",
            "0x0000000000000000000000000000000000000000000000000000000000000002"
          ],
          "data": "0x",
          "blockHash": "0x0f1f74c2435f05c6cb2c9d400b8e9f10993c25f1e5c0ca1528564319cab69a05",
          "blockNumber": "0x7152bd",
          "transactionHash": "0xf8569727bf4673dff32a088a6aea7d7855177bc6509a04967ec453a7493d0d7b",
          "transactionIndex": "0x48",
          "logIndex": "0xa9",
          "removed": false
        },
        {
          "address": "0x13a3f83145ce29cb768c03438a8eeda8a70790a2",
          "topics": [
            "0xef1da42f89c42f48befa143007e6f5efd84a2d1cc3dc97c5edd2d3373220f66d",
            "0x0000000000000000000000000000000000000000000000000000000000000002"
          ],
          "data": "0x",
          "blockHash": "0x0f1f74c2435f05c6cb2c9d400b8e9f10993c25f1e5c0ca1528564319cab69a05",
          "blockNumber": "0x7152bd",
          "transactionHash": "0xf8569727bf4673dff32a088a6aea7d7855177bc6509a04967ec453a7493d0d7b",
          "transactionIndex": "0x48",
          "logIndex": "0xaa",
          "removed": false
        }
      ],
      "logsBloom": "0x04004000000000000000000000100000000000000000000000000000000000000000000000000000001000000000000000000000004000000000000000000000000000000000000000000008000000000002000000000000000000000000000000000000020000000000000000000800000000000000000000000010000000000000000000000000000000000000000000000000000000000000000000008000000000000000000000000100000000000000000000000000000000000000000000000002000000000000000000000000000000000000000000000000000220010000000000000000000000000010000000000000008000000000000000000000",
      "type": "0x2",
      "transactionHash": "0xf8569727bf4673dff32a088a6aea7d7855177bc6509a04967ec453a7493d0d7b",
      "transactionIndex": "0x48",
      "blockHash": "0x0f1f74c2435f05c6cb2c9d400b8e9f10993c25f1e5c0ca1528564319cab69a05",
      "blockNumber": "0x7152bd",
      "gasUsed": "0xe143",
      "effectiveGasPrice": "0x82976311e",
      "from": "0x4c9630397e08c8b54375ad8608025db7c7026840",
      "to": "0x13a3f83145ce29cb768c03438a8eeda8a70790a2",
      "contractAddress": null
    },
    {
      "status": "0x1",
      "cumulativeGasUsed": "0xf538cf",
      "logs": [
        {
          "address": "0x13a3f83145ce29cb768c03438a8eeda8a70790a2",
          "topics": [
            "0x8c5be1e5ebec7d5bd14f71427d1e84f3dd0314c0f7b2291e5b200ac8c7c3b925",
            "0x0000000000000000000000004c9630397e08c8b54375ad8608025db7c7026840",
            "0x0000000000000000000000004f5ce484202e50e7c98edd69706400925befe233",
            "0x0000000000000000000000000000000000000000000000000000000000000002"
          ],
          "data": "0x",
          "blockHash": "0x0f1f74c2435f05c6cb2c9d400b8e9f10993c25f1e5c0ca1528564319cab69a05",
          "blockNumber": "0x7152bd",
          "transactionHash": "0x79e8e6a8092b3403187c9227fcd5d9fc6e94f1c7b3c9ee61962e2231871d4884",
          "transactionIndex": "0x49",
          "logIndex": "0xab",
          "removed": false
        }
      ],
      "logsBloom": "0x04004000000000000000000000000000000000000000000000000000000000000000000000000000001000000000000000000000000000000000000000200000000000000000000000000000000000000002000000000000000000000000000000000000000000000000000000000000000000000000000000000000000000000000000000000000000000000000000000000000000000000000000000000000020000000000000000000100000000000000000000000000000000000000000000000000000000000000000000000000800000000000002000000000000200010010000000000000000000080010000000000000008000000000000000000000",
      "type": "0x2",
      "transactionHash": "0x79e8e6a8092b3403187c9227fcd5d9fc6e94f1c7b3c9ee61962e2231871d4884",
      "transactionIndex": "0x49",
      "blockHash": "0x0f1f74c2435f05c6cb2c9d400b8e9f10993c25f1e5c0ca1528564319cab69a05",
      "blockNumber": "0x7152bd",
      "gasUsed": "0xbe22",
      "effectiveGasPrice": "0x82976311e",
      "from": "0x4c9630397e08c8b54375ad8608025db7c7026840",
      "to": "0x13a3f83145ce29cb768c03438a8eeda8a70790a2",
      "contractAddress": null
    },
    {
      "status": "0x1",
      "cumulativeGasUsed": "0xf66acd",
      "logs": [
        {
          "address": "0x4f5ce484202e50e7c98edd69706400925befe233",
          "topics": [
            "0xd547e933094f12a9159076970143ebe73234e64480317844b0dcb36117116de4",
            "0x0000000000000000000000004c9630397e08c8b54375ad8608025db7c7026840",
            "0x00000000000000000000000013a3f83145ce29cb768c03438a8eeda8a70790a2",
            "0x0000000000000000000000000000000000000000000000000000000000000002"
          ],
          "data": "0x000000000000000000000000000000000000000000000000016345785d8a0000",
          "blockHash": "0x0f1f74c2435f05c6cb2c9d400b8e9f10993c25f1e5c0ca1528564319cab69a05",
          "blockNumber": "0x7152bd",
          "transactionHash": "0x7f575972105b1f8e09caee91aeb5c07b7732f6d4915b57aa2ea925a5711f9429",
          "transactionIndex": "0x4a",
          "logIndex": "0xac",
          "removed": false
        }
      ],
      "logsBloom": "0x04004800000000000000000000000000000000000000000000000000000000000000000000000000000000000010000000000000000000000000000000004004000000000000000000000000000000000002000000000000000000000000000000000001000000000000000000000000000000000000000000000000000000000000000000000000008000000000000000000000000000000400000000000000000000020000000000000100000000000000000000000000000000000000000000000000000000000000000000000000000000000000000000000000000000010000000000000000000000000000000000000000008000000000000040000000",
      "type": "0x2",
      "transactionHash": "0x7f575972105b1f8e09caee91aeb5c07b7732f6d4915b57aa2ea925a5711f9429",
      "transactionIndex": "0x4a",
      "blockHash": "0x0f1f74c2435f05c6cb2c9d400b8e9f10993c25f1e5c0ca1528564319cab69a05",
      "blockNumber": "0x7152bd",
      "gasUsed": "0x131fe",
      "effectiveGasPrice": "0x82976311e",
      "from": "0x4c9630397e08c8b54375ad8608025db7c7026840",
      "to": "0x4f5ce484202e50e7c98edd69706400925befe233",
      "contractAddress": null
    }
  ],
  "libraries": [],
  "pending": [],
  "returns": {},
  "timestamp": 1736085277,
  "chain": 11155111,
  "commit": "087226c"
}